{
  "_format": "hh-sol-artifact-1",
  "contractName": "SmartCasa",
  "sourceName": "contracts/SmartCasa.sol",
  "abi": [
    {
      "inputs": [
        {
          "internalType": "address",
          "name": "_tokenAddress",
          "type": "address"
        }
      ],
      "stateMutability": "nonpayable",
      "type": "constructor"
    },
    {
      "inputs": [
        {
          "internalType": "address",
          "name": "owner",
          "type": "address"
        }
      ],
      "name": "OwnableInvalidOwner",
      "type": "error"
    },
    {
      "inputs": [
        {
          "internalType": "address",
          "name": "account",
          "type": "address"
        }
      ],
      "name": "OwnableUnauthorizedAccount",
      "type": "error"
    },
    {
      "anonymous": false,
      "inputs": [
        {
          "indexed": true,
          "internalType": "address",
          "name": "previousOwner",
          "type": "address"
        },
        {
          "indexed": true,
          "internalType": "address",
          "name": "newOwner",
          "type": "address"
        }
      ],
      "name": "OwnershipTransferred",
      "type": "event"
    },
    {
      "anonymous": false,
      "inputs": [
        {
          "indexed": true,
          "internalType": "address",
          "name": "buyer",
          "type": "address"
        },
        {
          "indexed": false,
          "internalType": "uint256",
          "name": "appartementId",
          "type": "uint256"
        },
        {
          "indexed": false,
          "internalType": "uint256",
          "name": "numParts",
          "type": "uint256"
        }
      ],
      "name": "PartPurchased",
      "type": "event"
    },
    {
      "inputs": [
        {
          "internalType": "uint256",
          "name": "",
          "type": "uint256"
        }
      ],
      "name": "appartementIds",
      "outputs": [
        {
          "internalType": "uint256",
          "name": "",
          "type": "uint256"
        }
      ],
      "stateMutability": "view",
      "type": "function"
    },
    {
      "inputs": [
        {
          "internalType": "uint256",
          "name": "",
          "type": "uint256"
        }
      ],
      "name": "appartements",
      "outputs": [
        {
          "internalType": "uint256",
          "name": "appartementId",
          "type": "uint256"
        },
        {
          "internalType": "uint256",
          "name": "totalParts",
          "type": "uint256"
        },
        {
          "internalType": "uint256",
          "name": "pricePerPart",
          "type": "uint256"
        },
        {
          "internalType": "uint256",
          "name": "totalPrice",
          "type": "uint256"
        },
        {
          "internalType": "string",
          "name": "location",
          "type": "string"
        },
        {
          "internalType": "uint256",
          "name": "revenuePerMonth",
          "type": "uint256"
        },
        {
          "internalType": "uint256",
          "name": "surface",
          "type": "uint256"
        },
        {
          "internalType": "uint8",
          "name": "rooms",
          "type": "uint8"
        },
        {
          "internalType": "uint256",
          "name": "totalRaised",
          "type": "uint256"
        },
        {
          "internalType": "uint256",
          "name": "partsSold",
          "type": "uint256"
        }
      ],
      "stateMutability": "view",
      "type": "function"
    },
    {
      "inputs": [
        {
          "internalType": "uint256",
          "name": "appartementId",
          "type": "uint256"
        },
        {
          "internalType": "uint256",
          "name": "numParts",
          "type": "uint256"
        }
      ],
      "name": "buyPart",
      "outputs": [],
      "stateMutability": "nonpayable",
      "type": "function"
    },
    {
      "inputs": [
        {
          "internalType": "uint256",
          "name": "appartementId",
          "type": "uint256"
        },
        {
          "internalType": "uint256",
          "name": "totalParts",
          "type": "uint256"
        },
        {
          "internalType": "uint256",
          "name": "pricePerPart",
          "type": "uint256"
        },
        {
          "internalType": "uint256",
          "name": "totalPrice",
          "type": "uint256"
        },
        {
          "internalType": "string",
          "name": "location",
          "type": "string"
        },
        {
          "internalType": "uint256",
          "name": "revenuePerMonth",
          "type": "uint256"
        },
        {
          "internalType": "uint256",
          "name": "surface",
          "type": "uint256"
        },
        {
          "internalType": "uint8",
          "name": "rooms",
          "type": "uint8"
        }
      ],
      "name": "createAppartement",
      "outputs": [],
      "stateMutability": "nonpayable",
      "type": "function"
    },
    {
      "inputs": [],
      "name": "getAllApartments",
      "outputs": [
        {
          "components": [
            {
              "internalType": "uint256",
              "name": "appartementId",
              "type": "uint256"
            },
            {
              "internalType": "uint256",
              "name": "totalParts",
              "type": "uint256"
            },
            {
              "internalType": "uint256",
              "name": "pricePerPart",
              "type": "uint256"
            },
            {
              "internalType": "uint256",
              "name": "totalPrice",
              "type": "uint256"
            },
            {
              "internalType": "string",
              "name": "location",
              "type": "string"
            },
            {
              "internalType": "uint256",
              "name": "revenuePerMonth",
              "type": "uint256"
            },
            {
              "internalType": "uint256",
              "name": "surface",
              "type": "uint256"
            },
            {
              "internalType": "uint8",
              "name": "rooms",
              "type": "uint8"
            },
            {
              "internalType": "uint256",
              "name": "totalRaised",
              "type": "uint256"
            },
            {
              "internalType": "uint256",
              "name": "partsSold",
              "type": "uint256"
            },
            {
              "internalType": "address[]",
              "name": "investors",
              "type": "address[]"
            }
          ],
          "internalType": "struct SmartCasa.Appartement[]",
          "name": "",
          "type": "tuple[]"
        }
      ],
      "stateMutability": "view",
      "type": "function"
    },
    {
      "inputs": [
        {
          "internalType": "uint256",
          "name": "appartementId",
          "type": "uint256"
        }
      ],
      "name": "getApartmentDetails",
      "outputs": [
        {
          "internalType": "uint256",
          "name": "",
          "type": "uint256"
        },
        {
          "internalType": "uint256",
          "name": "",
          "type": "uint256"
        },
        {
          "internalType": "uint256",
          "name": "",
          "type": "uint256"
        },
        {
          "internalType": "uint256",
          "name": "",
          "type": "uint256"
        },
        {
          "internalType": "string",
          "name": "",
          "type": "string"
        },
        {
          "internalType": "uint256",
          "name": "",
          "type": "uint256"
        },
        {
          "internalType": "uint256",
          "name": "",
          "type": "uint256"
        },
        {
          "internalType": "uint8",
          "name": "",
          "type": "uint8"
        },
        {
          "internalType": "uint256",
          "name": "",
          "type": "uint256"
        }
      ],
      "stateMutability": "view",
      "type": "function"
    },
    {
      "inputs": [],
      "name": "owner",
      "outputs": [
        {
          "internalType": "address",
          "name": "",
          "type": "address"
        }
      ],
      "stateMutability": "view",
      "type": "function"
    },
    {
      "inputs": [],
      "name": "renounceOwnership",
      "outputs": [],
      "stateMutability": "nonpayable",
      "type": "function"
    },
    {
      "inputs": [],
      "name": "token",
      "outputs": [
        {
          "internalType": "contract SmartCasaToken",
          "name": "",
          "type": "address"
        }
      ],
      "stateMutability": "view",
      "type": "function"
    },
    {
      "inputs": [
        {
          "internalType": "address",
          "name": "account",
          "type": "address"
        }
      ],
      "name": "tokenBalanceOf",
      "outputs": [
        {
          "internalType": "uint256",
          "name": "",
          "type": "uint256"
        }
      ],
      "stateMutability": "view",
      "type": "function"
    },
    {
      "inputs": [
        {
          "internalType": "address",
          "name": "newOwner",
          "type": "address"
        }
      ],
      "name": "transferOwnership",
      "outputs": [],
      "stateMutability": "nonpayable",
      "type": "function"
    },
    {
      "inputs": [],
      "name": "withdrawFunds",
      "outputs": [],
      "stateMutability": "nonpayable",
      "type": "function"
    }
  ],
  "bytecode": "0x60806040523480156200001157600080fd5b506040516200196f3803806200196f833981016040819052620000349162000136565b33806200005c57604051631e4fbdf760e01b8152600060048201526024015b60405180910390fd5b6200006781620000e6565b506001600160a01b038116620000c05760405162461bcd60e51b815260206004820152601d60248201527f546f6b656e20616464726573732063616e6e6f74206265207a65726f2e000000604482015260640162000053565b600180546001600160a01b0319166001600160a01b039290921691909117905562000168565b600080546001600160a01b038381166001600160a01b0319831681178455604051919092169283917f8be0079c531659141344cd1fd0a4f28419497f9722a3daafe3b4186f6b6457e09190a35050565b6000602082840312156200014957600080fd5b81516001600160a01b03811681146200016157600080fd5b9392505050565b6117f780620001786000396000f3fe608060405234801561001057600080fd5b50600436106100b45760003560e01c80638da5cb5b116100715780638da5cb5b1461014d57806394378baf14610172578063e42c08f214610193578063ee60ec8b146101a6578063f2fde38b146101b9578063fc0c546a146101cc57600080fd5b80630397eee0146100b957806324600fc3146100d757806335b127da146100e1578063462a6bd9146100f457806364f8c17c1461011d578063715018a614610145575b600080fd5b6100c16101df565b6040516100ce9190611293565b60405180910390f35b6100df610474565b005b6100df6100ef366004611389565b610504565b6101076101023660046113ab565b610850565b6040516100ce9a999897969594939291906113c4565b61013061012b3660046113ab565b610930565b6040516100ce99989796959493929190611423565b6100df610b64565b6000546001600160a01b03165b6040516001600160a01b0390911681526020016100ce565b6101856101803660046113ab565b610b78565b6040519081526020016100ce565b6101856101a136600461147c565b610b99565b6100df6101b43660046114d8565b610c0e565b6100df6101c736600461147c565b6110d4565b60015461015a906001600160a01b031681565b60035460609060009067ffffffffffffffff811115610200576102006114ac565b60405190808252806020026020018201604052801561029157816020015b61027e60405180610160016040528060008152602001600081526020016000815260200160008152602001606081526020016000815260200160008152602001600060ff1681526020016000815260200160008152602001606081525090565b81526020019060019003908161021e5790505b50905060005b60035481101561046e5760026000600383815481106102b8576102b86115d4565b906000526020600020015481526020019081526020016000206040518061016001604052908160008201548152602001600182015481526020016002820154815260200160038201548152602001600482018054610315906115ea565b80601f0160208091040260200160405190810160405280929190818152602001828054610341906115ea565b801561038e5780601f106103635761010080835404028352916020019161038e565b820191906000526020600020905b81548152906001019060200180831161037157829003601f168201915b5050505050815260200160058201548152602001600682015481526020016007820160009054906101000a900460ff1660ff1660ff1681526020016008820154815260200160098201548152602001600a820180548060200260200160405190810160405280929190818152602001828054801561043557602002820191906000526020600020905b81546001600160a01b03168152600190910190602001808311610417575b505050505081525050828281518110610450576104506115d4565b6020026020010181905250808061046690611634565b915050610297565b50919050565b61047c611112565b47806104c75760405162461bcd60e51b8152602060048201526015602482015274273790333ab73239903a37903bb4ba34323930bb9760591b60448201526064015b60405180910390fd5b600080546040516001600160a01b039091169183156108fc02918491818181858888f19350505050158015610500573d6000803e3d6000fd5b5050565b600082815260026020526040812080549091036105635760405162461bcd60e51b815260206004820152601b60248201527f417070617274656d656e7420646f6573206e6f742065786973742e000000000060448201526064016104be565b600082116105b35760405162461bcd60e51b815260206004820152601f60248201527f596f75206d75737420627579206174206c65617374206f6e6520706172742e0060448201526064016104be565b80600101548282600901546105c8919061164d565b11156106165760405162461bcd60e51b815260206004820152601b60248201527f4e6f7420656e6f75676820706172747320617661696c61626c652e000000000060448201526064016104be565b8181600201546106269190611660565b6001546040516370a0823160e01b81523360048201526001600160a01b03909116906370a0823190602401602060405180830381865afa15801561066e573d6000803e3d6000fd5b505050506040513d601f19601f820116820180604052508101906106929190611677565b10156106d65760405162461bcd60e51b815260206004820152601360248201527224b739bab33334b1b4b2b73a10333ab732399760691b60448201526064016104be565b60008282600201546106e89190611660565b6001546040516323b872dd60e01b8152336004820152306024820152604481018390529192506001600160a01b0316906323b872dd906064016020604051808303816000875af1158015610740573d6000803e3d6000fd5b505050506040513d601f19601f820116820180604052508101906107649190611690565b6107a95760405162461bcd60e51b81526020600482015260166024820152752a37b5b2b7103a3930b739b332b9103330b4b632b21760511b60448201526064016104be565b808260080160008282546107bd919061164d565b92505081905550828260090160008282546107d8919061164d565b9091555050600a82018054600181018255600091825260209091200180546001600160a01b031916339081179091556040517f09453587a230bd5506b61c818da78a68cf3ea75a316954e29a789ada0343a5c7906108429087908790918252602082015260400190565b60405180910390a250505050565b600260205280600052604060002060009150905080600001549080600101549080600201549080600301549080600401805461088b906115ea565b80601f01602080910402602001604051908101604052809291908181526020018280546108b7906115ea565b80156109045780601f106108d957610100808354040283529160200191610904565b820191906000526020600020905b8154815290600101906020018083116108e757829003601f168201915b50505060058401546006850154600786015460088701546009909701549596929591945060ff1692508a565b60008060008060606000806000806000600260008c81526020019081526020016000206040518061016001604052908160008201548152602001600182015481526020016002820154815260200160038201548152602001600482018054610997906115ea565b80601f01602080910402602001604051908101604052809291908181526020018280546109c3906115ea565b8015610a105780601f106109e557610100808354040283529160200191610a10565b820191906000526020600020905b8154815290600101906020018083116109f357829003601f168201915b5050505050815260200160058201548152602001600682015481526020016007820160009054906101000a900460ff1660ff1660ff1681526020016008820154815260200160098201548152602001600a8201805480602002602001604051908101604052809291908181526020018280548015610ab757602002820191906000526020600020905b81546001600160a01b03168152600190910190602001808311610a99575b50505050508152505090508060000151600003610b165760405162461bcd60e51b815260206004820152601a60248201527f417070617274656d656e7420646f6573206e6f7420657869737400000000000060448201526064016104be565b806000015181602001518260400151836060015184608001518560a001518660c001518760e00151886101200151995099509950995099509950995099509950509193959799909294969850565b610b6c611112565b610b76600061113f565b565b60038181548110610b8857600080fd5b600091825260209091200154905081565b6001546040516370a0823160e01b81526001600160a01b03838116600483015260009216906370a0823190602401602060405180830381865afa158015610be4573d6000803e3d6000fd5b505050506040513d601f19601f82011682018060405250810190610c089190611677565b92915050565b610c16611112565b87600003610c665760405162461bcd60e51b815260206004820152601e60248201527f417070617274656d656e742049442063616e6e6f74206265207a65726f2e000060448201526064016104be565b60008711610cc55760405162461bcd60e51b815260206004820152602660248201527f546f74616c207061727473206d7573742062652067726561746572207468616e604482015265103d32b9379760d11b60648201526084016104be565b60008611610d275760405162461bcd60e51b815260206004820152602960248201527f5072696365207065722070617274206d757374206265206772656174657220746044820152683430b7103d32b9379760b91b60648201526084016104be565b60008511610d865760405162461bcd60e51b815260206004820152602660248201527f546f74616c207072696365206d7573742062652067726561746572207468616e604482015265103d32b9379760d11b60648201526084016104be565b6000845111610dd75760405162461bcd60e51b815260206004820152601960248201527f4c6f636174696f6e2063616e6e6f7420626520656d7074792e0000000000000060448201526064016104be565b60008311610e3c5760405162461bcd60e51b815260206004820152602c60248201527f526576656e756520706572206d6f6e7468206d7573742062652067726561746560448201526b39103a3430b7103d32b9379760a11b60648201526084016104be565b60008211610e975760405162461bcd60e51b815260206004820152602260248201527f53757266616365206d7573742062652067726561746572207468616e207a6572604482015261379760f11b60648201526084016104be565b60008160ff1611610efd5760405162461bcd60e51b815260206004820152602a60248201527f4e756d626572206f6620726f6f6d73206d7573742062652067726561746572206044820152693a3430b7103d32b9379760b11b60648201526084016104be565b60008881526002602052604090205415610f595760405162461bcd60e51b815260206004820152601b60248201527f417070617274656d656e7420616c7265616479206578697374732e000000000060448201526064016104be565b6040518061016001604052808981526020018881526020018781526020018681526020018581526020018481526020018381526020018260ff1681526020016000815260200160008152602001600067ffffffffffffffff811115610fc057610fc06114ac565b604051908082528060200260200182016040528015610fe9578160200160208202803683370190505b50905260008981526002602081815260409283902084518155908401516001820155918301519082015560608201516003820155608082015160048201906110319082611701565b5060a0820151600582015560c0820151600682015560e082015160078201805460ff191660ff90921691909117905561010082015160088201556101208201516009820155610140820151805161109291600a84019160209091019061118f565b5050600380546001810182556000919091527fc2575a0e9e593c00f959f8c92f12db2869c3395a3b0502d05e2516446f71f85b01989098555050505050505050565b6110dc611112565b6001600160a01b03811661110657604051631e4fbdf760e01b8152600060048201526024016104be565b61110f8161113f565b50565b6000546001600160a01b03163314610b765760405163118cdaa760e01b81523360048201526024016104be565b600080546001600160a01b038381166001600160a01b0319831681178455604051919092169283917f8be0079c531659141344cd1fd0a4f28419497f9722a3daafe3b4186f6b6457e09190a35050565b8280548282559060005260206000209081019282156111e4579160200282015b828111156111e457825182546001600160a01b0319166001600160a01b039091161782556020909201916001909101906111af565b506111f09291506111f4565b5090565b5b808211156111f057600081556001016111f5565b6000815180845260005b8181101561122f57602081850181015186830182015201611213565b506000602082860101526020601f19601f83011685010191505092915050565b600081518084526020808501945080840160005b838110156112885781516001600160a01b031687529582019590820190600101611263565b509495945050505050565b60006020808301818452808551808352604092508286019150828160051b87010184880160005b8381101561137b57603f19898403018552815161016081518552888201518986015287820151888601526060808301518187015250608080830151828288015261130683880182611209565b9250505060a080830151818701525060c080830151818701525060e0808301516113348288018260ff169052565b5050610100828101519086015261012080830151908601526101409182015185820392860192909252611367818361124f565b9689019694505050908601906001016112ba565b509098975050505050505050565b6000806040838503121561139c57600080fd5b50508035926020909101359150565b6000602082840312156113bd57600080fd5b5035919050565b60006101408c83528b60208401528a60408401528960608401528060808401526113f08184018a611209565b60a0840198909852505060c081019490945260ff9290921660e08401526101008301526101209091015295945050505050565b60006101208b83528a602084015289604084015288606084015280608084015261144f81840189611209565b9150508560a08301528460c083015260ff841660e0830152826101008301529a9950505050505050505050565b60006020828403121561148e57600080fd5b81356001600160a01b03811681146114a557600080fd5b9392505050565b634e487b7160e01b600052604160045260246000fd5b803560ff811681146114d357600080fd5b919050565b600080600080600080600080610100898b0312156114f557600080fd5b88359750602089013596506040890135955060608901359450608089013567ffffffffffffffff8082111561152957600080fd5b818b0191508b601f83011261153d57600080fd5b81358181111561154f5761154f6114ac565b604051601f8201601f19908116603f01168101908382118183101715611577576115776114ac565b816040528281528e602084870101111561159057600080fd5b82602086016020830137600060208483010152809850505050505060a0890135925060c089013591506115c560e08a016114c2565b90509295985092959890939650565b634e487b7160e01b600052603260045260246000fd5b600181811c908216806115fe57607f821691505b60208210810361046e57634e487b7160e01b600052602260045260246000fd5b634e487b7160e01b600052601160045260246000fd5b6000600182016116465761164661161e565b5060010190565b80820180821115610c0857610c0861161e565b8082028115828204841417610c0857610c0861161e565b60006020828403121561168957600080fd5b5051919050565b6000602082840312156116a257600080fd5b815180151581146114a557600080fd5b601f8211156116fc57600081815260208120601f850160051c810160208610156116d95750805b601f850160051c820191505b818110156116f8578281556001016116e5565b5050505b505050565b815167ffffffffffffffff81111561171b5761171b6114ac565b61172f8161172984546115ea565b846116b2565b602080601f831160018114611764576000841561174c5750858301515b600019600386901b1c1916600185901b1785556116f8565b600085815260208120601f198616915b8281101561179357888601518255948401946001909101908401611774565b50858210156117b15787850151600019600388901b60f8161c191681555b5050505050600190811b0190555056fea26469706673582212207d508baf0a06d3c8cccbe089d7bf391fe0ee2a488b7febffa2dc7238109533c264736f6c63430008140033",
  "linkReferences": {},
  "deployedLinkReferences": {}
}